{
  "contractName": "GamePlayers",
  "abi": [
    {
      "constant": true,
      "inputs": [
        {
          "name": "",
          "type": "address"
        }
      ],
      "name": "balances",
      "outputs": [
        {
          "name": "",
          "type": "uint256"
        }
      ],
      "payable": false,
      "stateMutability": "view",
      "type": "function"
    },
    {
      "anonymous": false,
      "inputs": [
        {
          "indexed": true,
          "name": "",
          "type": "address"
        },
        {
          "indexed": false,
          "name": "funds",
          "type": "uint256"
        }
      ],
      "name": "LogDeposit",
      "type": "event"
    },
    {
      "anonymous": false,
      "inputs": [
        {
          "indexed": true,
          "name": "",
          "type": "address"
        },
        {
          "indexed": false,
          "name": "funs",
          "type": "uint256"
        }
      ],
      "name": "LogWithDraw",
      "type": "event"
    },
    {
      "constant": false,
      "inputs": [],
      "name": "depositFund",
      "outputs": [],
      "payable": true,
      "stateMutability": "payable",
      "type": "function"
    },
    {
      "constant": false,
      "inputs": [
        {
          "name": "fundToWithDraw",
          "type": "uint256"
        }
      ],
      "name": "withDrawFund",
      "outputs": [],
      "payable": false,
      "stateMutability": "nonpayable",
      "type": "function"
    }
  ],
  "bytecode": "0x608060405234801561001057600080fd5b506103a2806100206000396000f300608060405260043610610057576000357c0100000000000000000000000000000000000000000000000000000000900463ffffffff16806327e235e31461005c5780638d0d8cb6146100b3578063b5ad18b0146100bd575b600080fd5b34801561006857600080fd5b5061009d600480360381019080803573ffffffffffffffffffffffffffffffffffffffff1690602001909291905050506100ea565b6040518082815260200191505060405180910390f35b6100bb610102565b005b3480156100c957600080fd5b506100e8600480360381019080803590602001909291905050506101dc565b005b60006020528060005260406000206000915090505481565b346000803373ffffffffffffffffffffffffffffffffffffffff1673ffffffffffffffffffffffffffffffffffffffff168152602001908152602001600020600082825401925050819055503373ffffffffffffffffffffffffffffffffffffffff167f1b851e1031ef35a238e6c67d0c7991162390df915f70eaf9098dbf0b175a61986000803373ffffffffffffffffffffffffffffffffffffffff1673ffffffffffffffffffffffffffffffffffffffff168152602001908152602001600020546040518082815260200191505060405180910390a2565b806000803373ffffffffffffffffffffffffffffffffffffffff1673ffffffffffffffffffffffffffffffffffffffff1681526020019081526020016000205410151515610292576040517f08c379a00000000000000000000000000000000000000000000000000000000081526004018080602001828103825260128152602001807f496e73756666696369656e742046756e6473000000000000000000000000000081525060200191505060405180910390fd5b806000803373ffffffffffffffffffffffffffffffffffffffff1673ffffffffffffffffffffffffffffffffffffffff168152602001908152602001600020600082825403925050819055503373ffffffffffffffffffffffffffffffffffffffff167fa74fab966bfc29d4ea7866d609ac5d94324a5fe817362d6a9fee5d2f8df46759826040518082815260200191505060405180910390a23373ffffffffffffffffffffffffffffffffffffffff166108fc829081150290604051600060405180830381858888f19350505050158015610372573d6000803e3d6000fd5b50505600a165627a7a72305820f352dca0b77f1d3a96a2e5d653832980f5d52bf1dd8f14587b1c2085c29645170029",
  "source": "pragma solidity ^0.4.24;\n\ncontract GamePlayers {\n    \n    mapping (address => uint) public balances;\n    \n    event LogDeposit(address indexed, uint funds);\n    event LogWithDraw (address indexed, uint funs);\n    \n   \n   /* depositFund - This function allows users to deposit funds to the contract and\n                    participate in the game.\n   */\n   function depositFund() public payable{\n       balances[msg.sender] += msg.value;\n       emit LogDeposit(msg.sender, balances[msg.sender]);\n   }\n   \n   /* withDrawFund - This function allows users withdraw funds from the contract.\n    @params : fundToWithDraw  - Fund to withdraw\n   */\n   function withDrawFund(uint fundToWithDraw) public {\n        require (balances[msg.sender] >= fundToWithDraw, \"Insufficient Funds\");\n        balances[msg.sender] -= fundToWithDraw;\n        emit LogWithDraw(msg.sender,fundToWithDraw);\n        msg.sender.transfer(fundToWithDraw);\n  }\n}\n",
  "sourcePath": "/home/naveen/Documents/repos/Remittance1/contracts/GamePlayers.sol",
  "compiler": {
    "name": "solc",
    "version": "0.4.24+commit.e67f0147.Emscripten.clang"
  },
  "schemaVersion": "2.0.1",
  "updatedAt": "2018-07-14T15:14:38.188Z"
}