{
  "contractName": "RockPaperScissors",
  "abi": [
    {
      "constant": true,
      "inputs": [
        {
          "name": "",
          "type": "uint256"
        }
      ],
      "name": "games",
      "outputs": [
        {
          "components": [
            {
              "name": "playerId",
              "type": "address"
            },
            {
              "name": "betHash",
              "type": "bytes32"
            },
            {
              "name": "move",
              "type": "uint8"
            }
          ],
          "name": "player1",
          "type": "tuple"
        },
        {
          "components": [
            {
              "name": "playerId",
              "type": "address"
            },
            {
              "name": "betHash",
              "type": "bytes32"
            },
            {
              "name": "move",
              "type": "uint8"
            }
          ],
          "name": "player2",
          "type": "tuple"
        },
        {
          "name": "betAmount",
          "type": "uint256"
        },
        {
          "name": "fundsCollected",
          "type": "uint256"
        },
        {
          "name": "status",
          "type": "uint8"
        },
        {
          "name": "duration",
          "type": "uint256"
        }
      ],
      "payable": false,
      "stateMutability": "view",
      "type": "function"
    },
    {
      "constant": true,
      "inputs": [
        {
          "name": "",
          "type": "address"
        }
      ],
      "name": "balances",
      "outputs": [
        {
          "name": "",
          "type": "uint256"
        }
      ],
      "payable": false,
      "stateMutability": "view",
      "type": "function"
    },
    {
      "constant": false,
      "inputs": [],
      "name": "depositFund",
      "outputs": [],
      "payable": true,
      "stateMutability": "payable",
      "type": "function"
    },
    {
      "constant": false,
      "inputs": [
        {
          "name": "fundToWithDraw",
          "type": "uint256"
        }
      ],
      "name": "withDrawFund",
      "outputs": [],
      "payable": false,
      "stateMutability": "nonpayable",
      "type": "function"
    },
    {
      "inputs": [
        {
          "name": "_maxWaitTime",
          "type": "uint256"
        }
      ],
      "payable": false,
      "stateMutability": "nonpayable",
      "type": "constructor"
    },
    {
      "anonymous": false,
      "inputs": [
        {
          "indexed": true,
          "name": "gameId",
          "type": "uint256"
        },
        {
          "indexed": false,
          "name": "betAmount",
          "type": "uint256"
        }
      ],
      "name": "LogGameCreated",
      "type": "event"
    },
    {
      "anonymous": false,
      "inputs": [
        {
          "indexed": true,
          "name": "gameId",
          "type": "uint256"
        },
        {
          "indexed": true,
          "name": "player",
          "type": "address"
        },
        {
          "indexed": false,
          "name": "betAmount",
          "type": "uint256"
        }
      ],
      "name": "LogPlayerEnrolled",
      "type": "event"
    },
    {
      "anonymous": false,
      "inputs": [
        {
          "indexed": true,
          "name": "gameId",
          "type": "uint256"
        },
        {
          "indexed": true,
          "name": "player",
          "type": "address"
        }
      ],
      "name": "LogPlayerBetPlaced",
      "type": "event"
    },
    {
      "anonymous": false,
      "inputs": [
        {
          "indexed": true,
          "name": "gameId",
          "type": "uint256"
        },
        {
          "indexed": true,
          "name": "player",
          "type": "address"
        }
      ],
      "name": "LogPlayerBetRevealed",
      "type": "event"
    },
    {
      "anonymous": false,
      "inputs": [
        {
          "indexed": true,
          "name": "gameId",
          "type": "uint256"
        },
        {
          "indexed": true,
          "name": "winner",
          "type": "address"
        },
        {
          "indexed": false,
          "name": "funds",
          "type": "uint256"
        }
      ],
      "name": "LogWinningGame",
      "type": "event"
    },
    {
      "anonymous": false,
      "inputs": [
        {
          "indexed": true,
          "name": "gameId",
          "type": "uint256"
        },
        {
          "indexed": false,
          "name": "funds",
          "type": "uint256"
        }
      ],
      "name": "LogDrawGame",
      "type": "event"
    },
    {
      "anonymous": false,
      "inputs": [
        {
          "indexed": true,
          "name": "",
          "type": "address"
        },
        {
          "indexed": false,
          "name": "funds",
          "type": "uint256"
        }
      ],
      "name": "LogDeposit",
      "type": "event"
    },
    {
      "anonymous": false,
      "inputs": [
        {
          "indexed": true,
          "name": "",
          "type": "address"
        },
        {
          "indexed": false,
          "name": "funs",
          "type": "uint256"
        }
      ],
      "name": "LogWithDraw",
      "type": "event"
    },
    {
      "constant": false,
      "inputs": [
        {
          "name": "_betAmount",
          "type": "uint256"
        }
      ],
      "name": "createGame",
      "outputs": [
        {
          "name": "",
          "type": "uint256"
        }
      ],
      "payable": false,
      "stateMutability": "nonpayable",
      "type": "function"
    },
    {
      "constant": false,
      "inputs": [
        {
          "name": "_playerBet",
          "type": "uint256"
        },
        {
          "name": "_gameId",
          "type": "uint256"
        }
      ],
      "name": "enroll",
      "outputs": [],
      "payable": false,
      "stateMutability": "nonpayable",
      "type": "function"
    },
    {
      "constant": false,
      "inputs": [
        {
          "name": "_betHash",
          "type": "bytes32"
        },
        {
          "name": "_gameId",
          "type": "uint256"
        }
      ],
      "name": "play",
      "outputs": [],
      "payable": false,
      "stateMutability": "nonpayable",
      "type": "function"
    },
    {
      "constant": false,
      "inputs": [
        {
          "name": "_gameId",
          "type": "uint256"
        },
        {
          "name": "_move",
          "type": "uint8"
        },
        {
          "name": "passCode",
          "type": "bytes32"
        }
      ],
      "name": "revealBet",
      "outputs": [],
      "payable": false,
      "stateMutability": "nonpayable",
      "type": "function"
    },
    {
      "constant": true,
      "inputs": [
        {
          "name": "_gameId",
          "type": "uint256"
        },
        {
          "name": "passCode",
          "type": "bytes32"
        },
        {
          "name": "move",
          "type": "uint8"
        }
      ],
      "name": "getHash",
      "outputs": [
        {
          "name": "",
          "type": "bytes32"
        }
      ],
      "payable": false,
      "stateMutability": "view",
      "type": "function"
    },
    {
      "constant": false,
      "inputs": [
        {
          "name": "_gameId",
          "type": "uint256"
        }
      ],
      "name": "claimFunds",
      "outputs": [
        {
          "name": "",
          "type": "bool"
        }
      ],
      "payable": false,
      "stateMutability": "nonpayable",
      "type": "function"
    }
  ],
  "bytecode": "0x60806040526064600155600060025534801561001a57600080fd5b5060405160208061279e83398101806040528101908080519060200190929190505050600081111561004e57806001819055505b506127408061005e6000396000f3006080604052600436106100a4576000357c0100000000000000000000000000000000000000000000000000000000900463ffffffff168063117a5b90146100a95780631b55e3381461011b57806327e235e3146101605780633e98ab54146101b757806348e837b9146101f25780638d0d8cb614610233578063a599ef651461023d578063b5ad18b014610274578063e08a6b30146102a1578063faa9578c146102e9575b600080fd5b3480156100b557600080fd5b506100d46004803603810190808035906020019092919050505061034d565b604051808781526020018681526020018581526020018481526020018360058111156100fc57fe5b60ff168152602001828152602001965050505050505060405180910390f35b34801561012757600080fd5b50610146600480360381019080803590602001909291905050506104d6565b604051808215151515815260200191505060405180910390f35b34801561016c57600080fd5b506101a1600480360381019080803573ffffffffffffffffffffffffffffffffffffffff169060200190929190505050610a90565b6040518082815260200191505060405180910390f35b3480156101c357600080fd5b506101f0600480360381019080803560001916906020019092919080359060200190929190505050610aa8565b005b3480156101fe57600080fd5b5061021d60048036038101908080359060200190929190505050610f63565b6040518082815260200191505060405180910390f35b61023b6110d8565b005b34801561024957600080fd5b5061027260048036038101908080359060200190929190803590602001909291905050506111b2565b005b34801561028057600080fd5b5061029f600480360381019080803590602001909291905050506118ef565b005b3480156102ad57600080fd5b506102e760048036038101908080359060200190929190803560ff1690602001909291908035600019169060200190929190505050611a89565b005b3480156102f557600080fd5b5061032f600480360381019080803590602001909291908035600019169060200190929190803560ff169060200190929190505050612100565b60405180826000191660001916815260200191505060405180910390f35b600360205280600052604060002060009150905080600001606060405190810160405290816000820160009054906101000a900473ffffffffffffffffffffffffffffffffffffffff1673ffffffffffffffffffffffffffffffffffffffff1673ffffffffffffffffffffffffffffffffffffffff1681526020016001820154600019166000191681526020016002820160009054906101000a900460ff1660038111156103f757fe5b600381111561040257fe5b815250509080600301606060405190810160405290816000820160009054906101000a900473ffffffffffffffffffffffffffffffffffffffff1673ffffffffffffffffffffffffffffffffffffffff1673ffffffffffffffffffffffffffffffffffffffff1681526020016001820154600019166000191681526020016002820160009054906101000a900460ff16600381111561049d57fe5b60038111156104a857fe5b81525050908060060154908060070154908060080160009054906101000a900460ff16908060090154905086565b600060016003600084815260200190815260200160002060080160009054906101000a900460ff16600581111561050957fe5b1115156105a4576040517f08c379a00000000000000000000000000000000000000000000000000000000081526004018080602001828103825260248152602001807f496e76616c69642047616d652053746174757320746f20636c61696d2072656681526020017f756e64200000000000000000000000000000000000000000000000000000000081525060400191505060405180910390fd5b60056003600084815260200190815260200160002060080160009054906101000a900460ff1660058111156105d557fe5b10151561064a576040517f08c379a00000000000000000000000000000000000000000000000000000000081526004018080602001828103825260178152602001807f47616d6520697320636c6f73656420616c72656164792000000000000000000081525060200191505060405180910390fd5b3373ffffffffffffffffffffffffffffffffffffffff166003600084815260200190815260200160002060000160000160009054906101000a900473ffffffffffffffffffffffffffffffffffffffff1673ffffffffffffffffffffffffffffffffffffffff16148061072157503373ffffffffffffffffffffffffffffffffffffffff166003600084815260200190815260200160002060030160000160009054906101000a900473ffffffffffffffffffffffffffffffffffffffff1673ffffffffffffffffffffffffffffffffffffffff16145b15156107bb576040517f08c379a00000000000000000000000000000000000000000000000000000000081526004018080602001828103825260228152602001807f4e6f7420617574686f72697a656420746f20616363657373207468697320676181526020017f6d6500000000000000000000000000000000000000000000000000000000000081525060400191505060405180910390fd5b436003600084815260200190815260200160002060090154101515610848576040517f08c379a00000000000000000000000000000000000000000000000000000000081526004018080602001828103825260128152602001807f47616d65207374696c6c20696e20706c6179000000000000000000000000000081525060200191505060405180910390fd5b3373ffffffffffffffffffffffffffffffffffffffff166003600084815260200190815260200160002060000160000160009054906101000a900473ffffffffffffffffffffffffffffffffffffffff1673ffffffffffffffffffffffffffffffffffffffff16141561096f57600060038111156108c257fe5b6003600084815260200190815260200160002060000160020160009054906101000a900460ff1660038111156108f457fe5b1415151561096a576040517f08c379a000000000000000000000000000000000000000000000000000000000815260040180806020018281038252601d8152602001807f506c617965722063616e6e6f7420636c61696d202046756e64206e6f7700000081525060200191505060405180910390fd5b610a25565b6000600381111561097c57fe5b6003600084815260200190815260200160002060030160020160009054906101000a900460ff1660038111156109ae57fe5b14151515610a24576040517f08c379a000000000000000000000000000000000000000000000000000000000815260040180806020018281038252601d8152602001807f506c617965722063616e6e6f7420636c61696d202046756e64206e6f7700000081525060200191505060405180910390fd5b5b60036000838152602001908152602001600020600601546000803373ffffffffffffffffffffffffffffffffffffffff1673ffffffffffffffffffffffffffffffffffffffff1681526020019081526020016000206000828254019250508190555060019050919050565b60006020528060005260406000206000915090505481565b60036005811115610ab557fe5b6003600083815260200190815260200160002060080160009054906101000a900460ff166005811115610ae457fe5b141515610b59576040517f08c379a00000000000000000000000000000000000000000000000000000000081526004018080602001828103825260188152602001807f596f752063616e6e6f7420706c61636520626574206e6f77000000000000000081525060200191505060405180910390fd5b6003600082815260200190815260200160002060000160000160009054906101000a900473ffffffffffffffffffffffffffffffffffffffff1673ffffffffffffffffffffffffffffffffffffffff163373ffffffffffffffffffffffffffffffffffffffff161480610c3057506003600082815260200190815260200160002060030160000160009054906101000a900473ffffffffffffffffffffffffffffffffffffffff1673ffffffffffffffffffffffffffffffffffffffff163373ffffffffffffffffffffffffffffffffffffffff16145b1515610ca4576040517f08c379a000000000000000000000000000000000000000000000000000000000815260040180806020018281038252600e8152602001807f496e76616c696420506c6179657200000000000000000000000000000000000081525060200191505060405180910390fd5b3373ffffffffffffffffffffffffffffffffffffffff166003600083815260200190815260200160002060000160000160009054906101000a900473ffffffffffffffffffffffffffffffffffffffff1673ffffffffffffffffffffffffffffffffffffffff161415610dd0576000600102600360008381526020019081526020016000206000016001015460001916141515610da9576040517f08c379a00000000000000000000000000000000000000000000000000000000081526004018080602001828103825260128152602001807f42657420616c726561647920706c61636564000000000000000000000000000081525060200191505060405180910390fd5b81600360008381526020019081526020016000206000016001018160001916905550610e8b565b6000600102600360008381526020019081526020016000206003016001015460001916141515610e68576040517f08c379a00000000000000000000000000000000000000000000000000000000081526004018080602001828103825260128152602001807f42657420616c726561647920706c61636564000000000000000000000000000081525060200191505060405180910390fd5b816003600083815260200190815260200160002060030160010181600019169055505b3373ffffffffffffffffffffffffffffffffffffffff16817fd67808992bdb7d2559c0af6cf9e3097bd4f167275eb716fb0327dba5e755a57d60405160405180910390a3600060010260036000838152602001908152602001600020600001600101546000191614158015610f215750600060010260036000838152602001908152602001600020600301600101546000191614155b15610f5f5760046003600083815260200190815260200160002060080160006101000a81548160ff02191690836005811115610f5957fe5b02179055505b5050565b600080600083111515611004576040517f08c379a00000000000000000000000000000000000000000000000000000000081526004018080602001828103825260238152602001807f42657420416d6f756e742073686f756c6420626520677265617465722074686181526020017f6e2030000000000000000000000000000000000000000000000000000000000081525060400191505060405180910390fd5b60025490508260036000838152602001908152602001600020600601819055506001544301600360008381526020019081526020016000206009018190555060016003600083815260200190815260200160002060080160006101000a81548160ff0219169083600581111561107657fe5b021790555061108583826111b2565b600260008154809291906001019190505550807ffe785c267945bfb2ca511f82e527c665066df83745d794401b8bebfb888d3ccb846040518082815260200191505060405180910390a280915050919050565b346000803373ffffffffffffffffffffffffffffffffffffffff1673ffffffffffffffffffffffffffffffffffffffff168152602001908152602001600020600082825401925050819055503373ffffffffffffffffffffffffffffffffffffffff167f1b851e1031ef35a238e6c67d0c7991162390df915f70eaf9098dbf0b175a61986000803373ffffffffffffffffffffffffffffffffffffffff1673ffffffffffffffffffffffffffffffffffffffff168152602001908152602001600020546040518082815260200191505060405180910390a2565b600060058111156111bf57fe5b6003600083815260200190815260200160002060080160009054906101000a900460ff1660058111156111ee57fe5b111515611263576040517f08c379a000000000000000000000000000000000000000000000000000000000815260040180806020018281038252600f8152602001807f496e766c6169642047616d65204944000000000000000000000000000000000081525060200191505060405180910390fd5b6003600581111561127057fe5b6003600083815260200190815260200160002060080160009054906101000a900460ff16600581111561129f57fe5b101515611314576040517f08c379a000000000000000000000000000000000000000000000000000000000815260040180806020018281038252601d8152602001807f4d6178696d69756d20506c6179657220636f756e74207265616368656400000081525060200191505060405180910390fd5b3373ffffffffffffffffffffffffffffffffffffffff166003600083815260200190815260200160002060000160000160009054906101000a900473ffffffffffffffffffffffffffffffffffffffff1673ffffffffffffffffffffffffffffffffffffffff16141515156113f1576040517f08c379a00000000000000000000000000000000000000000000000000000000081526004018080602001828103825260178152602001807f506c6179657220616c726561647920656e726f6c6c656400000000000000000081525060200191505060405180910390fd5b3373ffffffffffffffffffffffffffffffffffffffff166003600083815260200190815260200160002060030160000160009054906101000a900473ffffffffffffffffffffffffffffffffffffffff1673ffffffffffffffffffffffffffffffffffffffff16141515156114ce576040517f08c379a00000000000000000000000000000000000000000000000000000000081526004018080602001828103825260178152602001807f506c6179657220616c726561647920656e726f6c6c656400000000000000000081525060200191505060405180910390fd5b81600360008381526020019081526020016000206006015414151561155b576040517f08c379a00000000000000000000000000000000000000000000000000000000081526004018080602001828103825260148152602001807f496e636f72726563742042657420416d6f756e7400000000000000000000000081525060200191505060405180910390fd5b816000803373ffffffffffffffffffffffffffffffffffffffff1673ffffffffffffffffffffffffffffffffffffffff1681526020019081526020016000205410151515611637576040517f08c379a000000000000000000000000000000000000000000000000000000000815260040180806020018281038252602b8152602001807f496e73756666696369656e742046756e64732e204465706f7369742046756e6481526020017f7320616e6420726574727900000000000000000000000000000000000000000081525060400191505060405180910390fd5b6001600581111561164457fe5b6003600083815260200190815260200160002060080160009054906101000a900460ff16600581111561167357fe5b141561170e57336003600083815260200190815260200160002060000160000160006101000a81548173ffffffffffffffffffffffffffffffffffffffff021916908373ffffffffffffffffffffffffffffffffffffffff16021790555060026003600083815260200190815260200160002060080160006101000a81548160ff0219169083600581111561170457fe5b021790555061179e565b336003600083815260200190815260200160002060030160000160006101000a81548173ffffffffffffffffffffffffffffffffffffffff021916908373ffffffffffffffffffffffffffffffffffffffff160217905550600380600083815260200190815260200160002060080160006101000a81548160ff0219169083600581111561179857fe5b02179055505b816000803373ffffffffffffffffffffffffffffffffffffffff1673ffffffffffffffffffffffffffffffffffffffff168152602001908152602001600020600082825403925050819055508160036000838152602001908152602001600020600701600082825401925050819055508160036000838152602001908152602001600020600701541015151561189c576040517f08c379a00000000000000000000000000000000000000000000000000000000081526004018080602001828103825260198152602001807f546f6f206c617267652066756e647320746f206d616e6167650000000000000081525060200191505060405180910390fd5b3373ffffffffffffffffffffffffffffffffffffffff16817fe3d7def6d30bd9f4247851d3cdf3aa217588eb374dbc87ec0ce1bd74685e2c56846040518082815260200191505060405180910390a35050565b806000803373ffffffffffffffffffffffffffffffffffffffff1673ffffffffffffffffffffffffffffffffffffffff16815260200190815260200160002054101515156119a5576040517f08c379a00000000000000000000000000000000000000000000000000000000081526004018080602001828103825260128152602001807f496e73756666696369656e742046756e6473000000000000000000000000000081525060200191505060405180910390fd5b806000803373ffffffffffffffffffffffffffffffffffffffff1673ffffffffffffffffffffffffffffffffffffffff168152602001908152602001600020600082825403925050819055503373ffffffffffffffffffffffffffffffffffffffff167fa74fab966bfc29d4ea7866d609ac5d94324a5fe817362d6a9fee5d2f8df46759826040518082815260200191505060405180910390a23373ffffffffffffffffffffffffffffffffffffffff166108fc829081150290604051600060405180830381858888f19350505050158015611a85573d6000803e3d6000fd5b5050565b3373ffffffffffffffffffffffffffffffffffffffff166003600085815260200190815260200160002060000160000160009054906101000a900473ffffffffffffffffffffffffffffffffffffffff1673ffffffffffffffffffffffffffffffffffffffff161480611b6057503373ffffffffffffffffffffffffffffffffffffffff166003600085815260200190815260200160002060030160000160009054906101000a900473ffffffffffffffffffffffffffffffffffffffff1673ffffffffffffffffffffffffffffffffffffffff16145b1515611bfa576040517f08c379a00000000000000000000000000000000000000000000000000000000081526004018080602001828103825260228152602001807f4e6f7420617574686f72697a656420746f20616363657373207468697320676181526020017f6d6500000000000000000000000000000000000000000000000000000000000081525060400191505060405180910390fd5b600580811115611c0657fe5b6003600085815260200190815260200160002060080160009054906101000a900460ff166005811115611c3557fe5b14151515611cab576040517f08c379a00000000000000000000000000000000000000000000000000000000081526004018080602001828103825260158152602001807f47616d6520616c72656164792072657665616c6564000000000000000000000081525060200191505060405180910390fd5b60046005811115611cb857fe5b6003600085815260200190815260200160002060080160009054906101000a900460ff166005811115611ce757fe5b141515611d82576040517f08c379a000000000000000000000000000000000000000000000000000000000815260040180806020018281038252602d8152602001807f43616e6e6f742072657665616c2e205374696c6c20736f6d652062657473206181526020017f7265206e6f7420706c616365640000000000000000000000000000000000000081525060400191505060405180910390fd5b6003600084815260200190815260200160002060000160000160009054906101000a900473ffffffffffffffffffffffffffffffffffffffff1673ffffffffffffffffffffffffffffffffffffffff163373ffffffffffffffffffffffffffffffffffffffff161415611ede57600360008481526020019081526020016000206000016001015460001916611e18848385612100565b60001916141515611e91576040517f08c379a00000000000000000000000000000000000000000000000000000000081526004018080602001828103825260128152602001807f496e76616c69642042657420706c61636564000000000000000000000000000081525060200191505060405180910390fd5b8160ff166003811115611ea057fe5b6003600085815260200190815260200160002060000160020160006101000a81548160ff02191690836003811115611ed457fe5b0217905550611fc9565b600360008481526020019081526020016000206003016001015460001916611f07848385612100565b60001916141515611f80576040517f08c379a00000000000000000000000000000000000000000000000000000000081526004018080602001828103825260128152602001807f496e76616c69642042657420706c61636564000000000000000000000000000081525060200191505060405180910390fd5b8160ff166003811115611f8f57fe5b6003600085815260200190815260200160002060030160020160006101000a81548160ff02191690836003811115611fc357fe5b02179055505b3373ffffffffffffffffffffffffffffffffffffffff16837f91f1b1bab01f4856c8dc805e2cf6249acdee8bc6f7da36712ff85c101ff8649f60405160405180910390a36000600381111561201a57fe5b6003600085815260200190815260200160002060000160020160009054906101000a900460ff16600381111561204c57fe5b1415801561209757506000600381111561206257fe5b6003600085815260200190815260200160002060030160020160009054906101000a900460ff16600381111561209457fe5b14155b156120fb576120a583612253565b506000600360008581526020019081526020016000206007018190555060056003600085815260200190815260200160002060080160006101000a81548160ff021916908360058111156120f557fe5b02179055505b505050565b60003033848685604051602001808673ffffffffffffffffffffffffffffffffffffffff1673ffffffffffffffffffffffffffffffffffffffff166c010000000000000000000000000281526014018573ffffffffffffffffffffffffffffffffffffffff1673ffffffffffffffffffffffffffffffffffffffff166c0100000000000000000000000002815260140184600019166000191681526020018381526020018260ff1660ff167f0100000000000000000000000000000000000000000000000000000000000000028152600101955050505050506040516020818303038152906040526040518082805190602001908083835b60208310151561221d57805182526020820191506020810190506020830392506121f8565b6001836020036101000a038019825116818451168082178552505050505050905001915050604051809103902090509392505050565b60008060008060006003600087815260200190815260200160002060000160020160009054906101000a900460ff1693506003600087815260200190815260200160002060030160020160009054906101000a900460ff1692508260038111156122b957fe5b8460038111156122c557fe5b039150600082141561247657600260036000888152602001908152602001600020600701548115156122f357fe5b04600080600360008a815260200190815260200160002060000160000160009054906101000a900473ffffffffffffffffffffffffffffffffffffffff1673ffffffffffffffffffffffffffffffffffffffff1673ffffffffffffffffffffffffffffffffffffffff168152602001908152602001600020600082825401925050819055506002600360008881526020019081526020016000206007015481151561239a57fe5b04600080600360008a815260200190815260200160002060030160000160009054906101000a900473ffffffffffffffffffffffffffffffffffffffff1673ffffffffffffffffffffffffffffffffffffffff1673ffffffffffffffffffffffffffffffffffffffff16815260200190815260200160002060008282540192505081905550857f1eaa68b44b0c049a8a9e5a41f2c131c15f556057fc20f009ae703e912afa2a7460036000898152602001908152602001600020600701546040518082815260200191505060405180910390a26001945061270b565b60038281151561248257fe5b06905060018114156125cc576003600087815260200190815260200160002060070154600080600360008a815260200190815260200160002060000160000160009054906101000a900473ffffffffffffffffffffffffffffffffffffffff1673ffffffffffffffffffffffffffffffffffffffff1673ffffffffffffffffffffffffffffffffffffffff168152602001908152602001600020600082825401925050819055506003600087815260200190815260200160002060000160000160009054906101000a900473ffffffffffffffffffffffffffffffffffffffff1673ffffffffffffffffffffffffffffffffffffffff16867fd277600ef252b856f4bd9c35fc5551d66dae5d4b9ca4daf757513ede5e082ea2600360008a8152602001908152602001600020600701546040518082815260200191505060405180910390a3612706565b6003600087815260200190815260200160002060070154600080600360008a815260200190815260200160002060030160000160009054906101000a900473ffffffffffffffffffffffffffffffffffffffff1673ffffffffffffffffffffffffffffffffffffffff1673ffffffffffffffffffffffffffffffffffffffff168152602001908152602001600020600082825401925050819055506003600087815260200190815260200160002060000160000160009054906101000a900473ffffffffffffffffffffffffffffffffffffffff1673ffffffffffffffffffffffffffffffffffffffff16867fd277600ef252b856f4bd9c35fc5551d66dae5d4b9ca4daf757513ede5e082ea2600360008a8152602001908152602001600020600701546040518082815260200191505060405180910390a35b600194505b505050509190505600a165627a7a72305820c27e094453727b3d3ebaf21eee9395ac084bae38785eeb1d6951ffe2591a1e6d0029",
  "source": "pragma solidity ^0.4.24;\n\nimport \"./GamePlayers.sol\";\n\n/* This contract enables any user to start a new game and invite\n   one other user to it. Once both the users go through the process of placing\n   a bet in a secured way and followed by revealing their bet, this contract will\n   find the winner and move the funds to the winner's balance */ \n\ncontract RockPaperScissors is GamePlayers  {\n \n enum Outcome {NONE, ROCK, PAPER, SCISSORS}\n enum GameStatus{OPEN, CREATED, PLAYER1_ENROLLED, PLAYER2_ENROLLED,BET_PLACED,BET_REVEALED}\n \n struct Player {\n     address playerId;\n     bytes32 betHash;\n     Outcome move;\n }\n \n struct Game {\n     Player player1;\n     Player player2;\n     uint  betAmount;\n     uint fundsCollected;\n     GameStatus status;\n     uint duration;\n }\n \n uint maxWaitTime = 100;\n uint newGameId = 0;\n mapping(uint=>Game) public games;\n \n event LogGameCreated(uint indexed gameId,uint betAmount);\n event LogPlayerEnrolled( uint indexed gameId, address indexed player, uint betAmount);\n event LogPlayerBetPlaced( uint indexed gameId, address indexed player);\n event LogPlayerBetRevealed(uint indexed gameId, address indexed player);\n event LogWinningGame(uint indexed gameId, address indexed winner, uint funds);\n event LogDrawGame(uint indexed gameId,uint funds);\n \n /* Constructor */\n constructor(uint _maxWaitTime) public {\n     if(_maxWaitTime > 0){\n         maxWaitTime = _maxWaitTime;\n     }\n }\n \n /* CreateGame - This function allows any user to create a new Game \n    @params : _betAmount - Bet amount identified by the user for the Game.\n    @returns : Game ID\n */\n function createGame(uint _betAmount) public returns(uint) {\n     require(_betAmount > 0 , \"Bet Amount should be greater than 0\");\n     uint gameId = newGameId;\n     games[gameId].betAmount = _betAmount;\n     games[gameId].duration = block.number + maxWaitTime;\n     games[gameId].status = GameStatus.CREATED;\n     enroll(_betAmount,gameId);\n     newGameId++;\n     emit LogGameCreated(gameId, _betAmount);\n     return gameId;\n }\n \n /* enroll - This function allows any user to enroll to an existing game.\n    @params : _playerBet - Bet amount for the Game.\n              _gameId    - Unique ID wich identifies the Game which user wants to\n                           be part of.\n */                           \n function enroll(uint _playerBet,uint _gameId) public {\n     require(games[_gameId].status > GameStatus.OPEN, \"Invlaid Game ID\");\n     require(games[_gameId].status < GameStatus.PLAYER2_ENROLLED, \"Maximium Player count reached\");\n     require(games[_gameId].player1.playerId != msg.sender, \"Player already enrolled\");\n     require(games[_gameId].player2.playerId != msg.sender, \"Player already enrolled\");\n     require(games[_gameId].betAmount == _playerBet, \"Incorrect Bet Amount\");\n     require(balances[msg.sender] >= _playerBet, \"Insufficient Funds. Deposit Funds and retry\");\n     if(games[_gameId].status == GameStatus.CREATED){\n         games[_gameId].player1.playerId = msg.sender;\n         games[_gameId].status = GameStatus.PLAYER1_ENROLLED;\n     }\n     else{\n         games[_gameId].player2.playerId = msg.sender;\n         games[_gameId].status = GameStatus.PLAYER2_ENROLLED;\n     }\n     balances[msg.sender] -= _playerBet;\n     games[_gameId].fundsCollected += _playerBet;\n     require(games[_gameId].fundsCollected >= _playerBet, \"Too large funds to manage\");\n     emit LogPlayerEnrolled(_gameId, msg.sender, _playerBet);\n }\n \n /* play - This function allows users who are part of a game to place their bet in a secured way.\n    @params : _betHash   - Hash of contract address, player address, passcode , game id \n                           and player's move (Rock/Paper/Scissors)\n              _gameId    - Unique ID wich identifies the Game which user wants to\n                           be part of.\n */  \n function play(bytes32 _betHash, uint _gameId) public {\n     \n     require(games[_gameId].status == GameStatus.PLAYER2_ENROLLED, \"You cannot place bet now\");\n     require(msg.sender == games[_gameId].player1.playerId || msg.sender == games[_gameId].player2.playerId, \"Invalid Player\");\n     \n     if(games[_gameId].player1.playerId == msg.sender){\n        require(games[_gameId].player1.betHash == 0, \"Bet already placed\");  \n        games[_gameId].player1.betHash = _betHash;\n     }\n     else{\n        require(games[_gameId].player2.betHash == 0, \"Bet already placed\");  \n        games[_gameId].player2.betHash = _betHash;\n     }\n     emit LogPlayerBetPlaced(_gameId, msg.sender);\n     \n     if (games[_gameId].player1.betHash != 0 && games[_gameId].player2.betHash != 0){\n        games[_gameId].status = GameStatus.BET_PLACED;\n     }\n }\n \n /* revealBet - This function is used by user to reveal bet once all the users who are\n                part of the game have placed bet in a secured way.\n    @params :_gameId    - Unique ID wich identifies the Game which user wants to\n                           be part of.\n             _move      - Player's move (Rock(1)/Paper(2)/Scissors(3)\n             passCode   - Player's passCode for this game.\n */     \n \n function revealBet(uint _gameId, uint8 _move, bytes32 passCode) public {\n     require(games[_gameId].player1.playerId == msg.sender || games[_gameId].player2.playerId == msg.sender, \"Not authorized to access this game\");\n     require(games[_gameId].status != GameStatus.BET_REVEALED, \"Game already revealed\");\n     require(games[_gameId].status == GameStatus.BET_PLACED, \"Cannot reveal. Still some bets are not placed\");\n     \n     if (msg.sender == games[_gameId].player1.playerId){\n         require(getHash(_gameId,passCode,_move) == games[_gameId].player1.betHash, \"Invalid Bet placed\");\n         games[_gameId].player1.move = Outcome(_move);\n     }\n     else{\n         require(getHash(_gameId,passCode,_move) == games[_gameId].player2.betHash, \"Invalid Bet placed\");\n         games[_gameId].player2.move = Outcome(_move);\n     }\n     emit LogPlayerBetRevealed(_gameId, msg.sender);\n      if (games[_gameId].player1.move != Outcome.NONE && games[_gameId].player2.move != Outcome.NONE){\n          announceResult(_gameId); \n          games[_gameId].fundsCollected = 0;\n          games[_gameId].status = GameStatus.BET_REVEALED;\n     }\n     \n}\n\n/* announceResult - This function checks the player bets and identifies the winner.\n                    We find the difference between the player's bets. If the result\n                    is 0, then result of the Game is Draw. If the result is non-zero,\n                    then we calculate modulo-3 of the difference to identify the \n                    winner.\n    @params : _gameId    - Unique ID wich identifies the Game which user wants to\n                           be part of.\n */\n function announceResult(uint _gameId) internal returns(bool) {\n     Outcome  player1Move = Outcome(games[_gameId].player1.move);\n     Outcome  player2Move = Outcome(games[_gameId].player2.move);\n     uint diff = uint(player1Move) - uint(player2Move);\n     if(diff == 0){\n         balances[games[_gameId].player1.playerId] += games[_gameId].fundsCollected/2;\n         balances[games[_gameId].player2.playerId] += games[_gameId].fundsCollected/2;\n         emit LogDrawGame (_gameId, games[_gameId].fundsCollected);\n         return true;\n     }\n     uint winningPlayer = (diff%3);\n     if(winningPlayer == 1){\n        balances[games[_gameId].player1.playerId] += games[_gameId].fundsCollected;\n        emit LogWinningGame(_gameId,games[_gameId].player1.playerId,games[_gameId].fundsCollected);\n     } else{\n        balances[games[_gameId].player2.playerId] += games[_gameId].fundsCollected;\n        emit LogWinningGame(_gameId,games[_gameId].player1.playerId,games[_gameId].fundsCollected);\n     }\n         \n    return true;\n     \n }\n \n /* getHash -   This function is used both internally and externally to calculate the betHash wwhich\n                is used to transfer the player's bet in a secured way.\n    @params : _gameId    - Unique ID wich identifies the Game which user wants to\n                           be part of.\n             _move      - Player's move (Rock(1)/Paper(2)/Scissors(3)\n             passCode   - Player's passCode for this game.\n */\n function getHash( uint _gameId, bytes32 passCode, uint8 move) public view returns(bytes32){\n     return (keccak256(abi.encodePacked(address(this),msg.sender,passCode, _gameId, move)));\n }\n \n /* claimFunds - This function is used by the user to reclaim funds from the Game which is stuck because of \n                 other player.\n    @params : _gameId    - Unique ID wich identifies the Game which user wants to\n                           be part of.\n */\n function claimFunds (uint _gameId) public returns(bool) {\n     require(uint(games[_gameId].status) > 1, \"Invalid Game Status to claim refund \");\n     require(uint(games[_gameId].status) < 5, \"Game is closed already \");\n     require(games[_gameId].player1.playerId == msg.sender || games[_gameId].player2.playerId == msg.sender, \"Not authorized to access this game\");\n     require(games[_gameId].duration <  block.number, \"Game still in play\");\n     if (games[_gameId].player1.playerId == msg.sender){\n        require(games[_gameId].player1.move != Outcome.NONE, \"Player cannot claim  Fund now\" );\n     }\n     else{\n        require(games[_gameId].player2.move != Outcome.NONE, \"Player cannot claim  Fund now\" );\n     }\n     balances[msg.sender] += games[_gameId].betAmount;\n     return true;\n }\n}\n\t\n",
  "sourcePath": "/home/naveen/Documents/repos/Remittance1/contracts/RockPaperScissors.sol",
  "compiler": {
    "name": "solc",
    "version": "0.4.24+commit.e67f0147.Emscripten.clang"
  },
  "schemaVersion": "2.0.1",
  "updatedAt": "2018-07-14T15:14:38.215Z"
}